:020000041A00E0
:10000000008000101D07001A7901001A7B01001AF8
:100010007D01001A7F01001A8101001A7271FF53DD
:100020000000000000000000000000008301001A32
:100030008501001A000000008701001AA119001AAA
:10004000BB01001ABB01001ABB01001A000000002E
:10005000BB01001ABB01001ABB01001ABB01001A48
:10006000651E001ABB01001ABB01001ABB01001A71
:10007000F917001A3918001A7918001ABD18001A51
:10008000BB01001ABB01001ABB01001ABB01001A18
:10009000BB01001ABB01001ABB01001ABB01001A08
:1000A000BD01001ABB01001AAB1D001AB51D001AD4
:1000B000BB01001ABB01001ABB01001ABB01001AE8
:1000C0004920001A5320001A5D20001ABB01001AB3
:1000D000BB01001ABB01001ABB01001ABB01001AC8
:1000E000BB01001ABB01001ABB01001ABB01001AB8
:1000F00000000000BB01001ABB01001ABB01001A7E
:1001000000000000BB01001ABB01001ABB01001A6D
:10011000BB01001AF051001A00000010B0020000EC
:10012000F051001A0000081000000000F051001A01
:100130000000002000000000F051001A00800020A4
:1001400000000000F051001A00C000200000000074
:10015000B00200102405000000000810000000009C
:1001600000000020000000000080002000000000CF
:1001700000C0002000000000FEE7FEE7FEE7FEE70B
:10018000FEE7FEE7FEE7FEE7FEE7002393420AD222
:1001900010B450F8044B41F8044B04339342F8D3A5
:1001A0005DF8044B7047704700238B4204D2002255
:1001B00040F8042B0433F8E77047FEE708B5002049
:1001C00001F06AFC08BDFFFFFFFFFFFFFFFFFFFF1D
:1001D000FFFFFFFFFFFFFFFFFFFFFFFFFFFFFFFF2F
:1001E000FFFFFFFFFFFFFFFFFFFFFFFFFFFFFFFF1F
:1001F000FFFFFFFFFFFFFFFFFFFFFFFFFFFFFFFF0F
:10020000FFFFFFFFFFFFFFFFFFFFFFFFFFFFFFFFFE
:10021000FFFFFFFFFFFFFFFFFFFFFFFFFFFFFFFFEE
:10022000FFFFFFFFFFFFFFFFFFFFFFFFFFFFFFFFDE
:10023000FFFFFFFFFFFFFFFFFFFFFFFFFFFFFFFFCE
:10024000FFFFFFFFFFFFFFFFFFFFFFFFFFFFFFFFBE
:10025000FFFFFFFFFFFFFFFFFFFFFFFFFFFFFFFFAE
:10026000FFFFFFFFFFFFFFFFFFFFFFFFFFFFFFFF9E
:10027000FFFFFFFFFFFFFFFFFFFFFFFFFFFFFFFF8E
:10028000FFFFFFFFFFFFFFFFFFFFFFFFFFFFFFFF7E
:10029000FFFFFFFFFFFFFFFFFFFFFFFFFFFFFFFF6E
:1002A000FFFFFFFFFFFFFFFFFFFFFFFFFFFFFFFF5E
:1002B000FFFFFFFFFFFFFFFFFFFFFFFFFFFFFFFF4E
:1002C000FFFFFFFFFFFFFFFFFFFFFFFFFFFFFFFF3E
:1002D000FFFFFFFFFFFFFFFFFFFFFFFFFFFFFFFF2E
:1002E000FFFFFFFFFFFFFFFFFFFFFFFFFFFFFFFF1E
:1002F000FFFFFFFFFFFFFFFFFFFFFFFFFFFFFFFF0E
:1003000008B501210F2001F069F901211F2001F03A
:1003100065F901210E2001F061F901211E2001F093
:100320005DF90021084601F0A5FB0221002001F043
:10033000A1FB0221042001F09DFB08BDF8B50D468C
:1003400014461F469DF91860002806DC00280DDBC6
:10035000E9B2204601F054FBF8BD0021304601F01F
:1003600013FA0121384601F00FFAF1E7002118468F
:1003700001F00AFA0121304601F006FAE8E7FFFF32
:1003800038B580EAE074A4EBE07481EAE170A0EB98
:10039000E17013460AB9002911DB042B0DD0631E4E
:1003A000242B2CD9204601F0B1FF17A3D3E9002359
:1003B00002F016F802F0AEFA1EE00029EFDD431E4F
:1003C000242B0AD901F0A2FF0FA3D3E9002302F0E6
:1003D00007F802F09FFA054600E00025631E242B73
:1003E0000BD9204601F092FF07A3D3E9002301F0C7
:1003F000F7FF02F08FFA401B38BD0020FBE700201A
:10040000FAE700BFAFF30080666666666666044082
:1004100070B582B005460E4600240DE0002231463C
:100420002846FFF7ADFF1F2300930F23002201464C
:100430002846FFF783FF0134012C11DC002CEDD09E
:10044000012CF8D1042231462846FFF799FF0E23EC
:1004500000931E23042201462846FFF76FFFEAE7B8
:1004600002B070BD08B50021052001F067FB054909
:10047000032001F08FFC044B01221A70052001F0CB
:10048000EBFB08BD884A001AB0020010014B187837
:10049000704700BFB0020010014B00221A70704775
:1004A000B002001008B50B49032001F073FC0121D4
:1004B000052001F043FB0023074A1946052001F0FF
:1004C00085FB052001F0C8FB0449032001F062FC14
:1004D00008BD00BFAC4A001A6504001AC04A001AE1
:1004E00000B5ADF5017D01F0CBFCFFF709FF00F091
:1004F000FBF8FFF7D7FF6420002101F053FD0FE068
:1005000001212B2001F040F930BF0120002101F032
:1005100049FD01212C2001F037F9FFF7B7FF20B981
:10052000FFF7B4FF0028F8D1EAE71449032001F0EF
:1005300031FC052001F0A8FB30B9FFF7ADFF012128
:10054000052001F0FBFAEBE7684600F0A3F80C4940
:10055000032001F01FFC6946032001F01BFC094940
:10056000032001F017FC684600F00EF84FF400720B
:100570000021684602F03AFCDBE700BFCC4A001AD3
:10058000EC4A001A0C4B001A30B583B0344903F022
:1005900093FA78B101A903F083FA019B1B78FBB9A8
:1005A0000022304B51EC100B01F01AFF02F0B2F9AF
:1005B000044600E065242A49002003F07DFA88B152
:1005C00001A903F06DFA019B1B78DBBB0022254BD0
:1005D00051EC100B01F004FF02F09CF9054602E01B
:1005E0006524E8E76525C82C2ED0B4F5C87F31D046
:1005F00004F16403C82B2BD815F1640F28DB642D9C
:1006000026DC1949032001F0C5FB2046E11701F063
:10061000B5FC0146032001F0BDFB1149032001F0A8
:10062000B9FB2846E91701F0A9FC0146032001F0B7
:10063000B1FB0E49032001F0ADFB29462046FFF730
:10064000E7FE05E06525CEE70949032001F0A2FB9E
:1006500003B030BD0749032001F09CFBC8E700BF91
:10066000304B001A00005940544B001AE84A001A57
:10067000344B001A444B001A08B54FF48062034B08
:100680001A600021024802F0B1FB08BD0000001012
:10069000F802001030B583B00546FFF7EDFF0024E7
:1006A00040F2FE339C4217DC052001F0EDFA98B1D0
:1006B0000DF10701052001F051FB0028F0D09DF855
:1006C00007300A2B05D00D2B03D0064A13550134F1
:1006D000E6E7044B00221A550249284602F0E8FBDF
:1006E00003B030BDF802001008B54FF4E13103202B
:1006F00001F0F6FA0649032001F04CFB4FF4E1311A
:10070000052001F0EDFA0349032001F043FB08BD89
:10071000744B001A9C4B001A7047FFFF10B572B65D
:10072000194B1A4A1A600433194A1A60002305E06B
:10073000184A4FF0FF3142F823100133072BF7D945
:1007400062B6154B07E003F10C049A685968186803
:10075000FFF71BFD2346114A9342F4D306E01C46E3
:10076000596854F8080BFFF71FFD23460C4A9342C3
:10077000F5D300F0EFFE02F005FBFFF7CDFFFFF72A
:10078000AFFE30BFFDE700BF003105400010DF10B5
:10079000FFF7DF0180E200E01401001A5001001AA7
:1007A0007801001A70477047054B1B6823B1044B52
:1007B0001868014419607047014B024A1A60F6E755
:1007C000B4020010D407001000231C2B12D810B460
:1007D000094A02EB830112F823404A78488802EB69
:1007E0004412064941F8220001331C2BF0D95DF870
:1007F000044B7047704700BFF84B001A0060084078
:1008000010B5174AD2F8203123F4704343F4104353
:10081000C2F82031D2F8243123F4704343F410435A
:10082000C2F8243101220F49062000F049FA0024C1
:100830004CB10B4B5A6822F00C025A605A6842F0D5
:1008400003025A6010BD084800EB840101238A7836
:10085000497810F8240000F00BFD0134E8E700BFF0
:100860000030044000CB280CF44B001A08B5FFF709
:10087000ABFFFFF7C5FF08BD0022052A19D870B4E9
:100880000C4911F8125001EB42014C780A4B05F566
:10089000006653F826100120A040014343F82610BB
:1008A00003EB4513002119550132052AE8D970BC24
:1008B00070477047784C001A00400F400023032B0C
:1008C00016D830B40B4911F8132001EB43014D78D1
:1008D000094C02F5006254F822100120A84021EAD8
:1008E000000144F822100133032BEBD930BC7047D0
:1008F000704700BF704C001A00400F400023082BC7
:1009000016D830B40B4911F8132001EB43014D7890
:10091000094C02F5006254F822100120A84021EA97
:10092000000144F822100133082BEBD930BC70478A
:10093000704700BF844C001A00400F4010B582B0D1
:10094000084C6946204600F07BF9074A6946204674
:1009500000F096F900226946204600F0AAF902B09C
:1009600010BD00BF00300E40801A060010B50B4CC1
:10097000204600F095F8636823F004036360236861
:1009800023F0FF0343F0070323600549204600F0EE
:1009900068F8636843F00203636010BD00500C40C8
:1009A000A086010008B5002000F0EEF8044B40F6E8
:1009B0000802C3F8842C0349002000F0F7F808BDB2
:1009C0000060084040420F0010B5074C204600F080
:1009D00009FD4FF4E131204600F04EFD0323E360B2
:1009E0000123E36510BD00BF00100C4008B5FFF700
:1009F000EBFF094800F0F6F8FFF780FFFFF79EFFD6
:100A0000FFF7B4FFFFF7CEFFFFF736FFFFF756FF04
:100A100000F002FA08BD00BF00400F4008B5FFF724
:100A2000D3FF08BD034B984201D083207047A52017
:100A3000704700BF00500C40044B984202D040F277
:100A4000022070474FF4F170704700BF00500C4017
:100A5000036823F47F43090289B2194301600261EC
:100A6000704770B506460D46FFF7E6FF00F07EFCC6
:100A700002224FF0FF33002100E02146AB420BD9A8
:100A80004C1C02FB04F3B0FBF3F39D42F6D2FF2CA7
:100A9000F3D902320021F1E73046FFF7D9FF70BDEC
:100AA00010B50446FFF7BEFF00F046FC2046FFF7F6
:100AB000C3FF00F041FC636823F004036360236814
:100AC00023F0FF0343F00703236002492046FFF7AA
:100AD000C8FF10BDA086010030B441F4805501F17B
:100AE000600300EBC3046560012440F8334002F169
:100AF000A00340F8334004FA01F100EBC30359604E
:100B0000816DA24003239340DB43194094400C4382
:100B10008465426D1340436530BC704738B5044668
:100B20000D466D2000F022FCB0FBF5F0636843F049
:100B300004136360636843F0081363600023A4F840
:100B40004C30A4F84E30C4F80031C4F800024FF421
:100B50008053C4F804330123C4F80033238103F520
:100B60000033236038BDFFFF012909D1C0EBC0006D
:100B70008200044B13441A69137DDBB2042BFBD0B3
:100B8000704700BF0400001070B50546064EC40053
:100B9000221A93003344988800F0CEFB641BA30014
:100BA000F3586C229A6170BD040000102DE9F041E9
:100BB0000C460B4EC5002B1A4FEA830806EB0803C0
:100BC000988800F0D3FBB0FBF4F056F808304208E8
:100BD0001A6156F808301A69801A5861BDE8F08128
:100BE00004000010704708B501231A4619466D200D
:100BF00000F084FB08BDFFFF034B984201D00320A7
:100C000070470420704700BF00400E4070B50D468D
:100C100014461E46FFF7F0FF00F0A8FB55B104FB99
:100C200006F404EB40006400B0FBF4F0C0B20138FD
:100C3000C0B270BD04EB840304EB4304F1E7FFFF93
:100C400038B505460C46FFF7D7FF01231A4619466B
:100C500000F054FB0021E960084A226021716171B3
:100C60000B232846FFF7D2FF000240F4001320793F
:100C7000400400F460201843286038BD801A060044
:100C800070B505460E46046824F46F2424F470649D
:100C90000A600B79C3F10B03DBB24979FFF7B6FFAA
:100CA00044EA002033795B0403F4602303432B60A0
:100CB00070BD08B50A710A68FFF7E2FF08BDFFFFC3
:100CC00070B58AB005460E4614464CF2503309936F
:100CD000062818D0002301222946042000F0C8FA73
:100CE0004A4A536C43F0010353648DF8085001A93C
:100CF000304600F035FA464B9E4216D9019B13F060
:100D0000400F03D0FEE700F08DF9E3E713F0800F0A
:100D100005D023F0800301930025012607E0049B02
:100D2000013304930125002601E000252E469DF89D
:100D30000820019B43EA0263059A43EA0243039AAF
:100D400043EA0233049A43EA022343F400632F4A3E
:100D500053642E4B1B6C13F0010FFAD000230122B9
:100D60000921042000F084FA06B34CF250330993B1
:100D7000099B5A1E0992002BFAD1019B43F0800374
:100D800001939DF8082043EA0263059A43EA02436F
:100D9000039A43EA0233049A43EA022343F40063CA
:100DA0001A4A5364002C2ED10AB070BD002DF9D020
:100DB0004CF250330993099B5A1E0992002BFAD129
:100DC000049B5A1E04929DF80810019B43EA01639C
:100DD000059943EA0143039943EA013343EA0223B5
:100DE00043F40063094A5364DCE70A4800EB8401DA
:100DF000CB788A78497810F8240000F039FA013469
:100E0000112CF2D9D0E70024FAE700BF000005401A
:100E100080778E069C4C001A08B5692000F0A6FA6F
:100E2000014B186008BD00BFF8060010F0B40B6855
:100E300013F0800F02D023F040030B60074601251A
:100E40003AE04B6903FB02F3B3FBF5F31CE01C46ED
:100E5000B0EB040C27D4674506D98D60771CCF60B2
:100E60000A618C61CB6167460132B2F5807F1DDC7F
:100E70000C6814F0400FE4D0731C02FA03FC4B69B9
:100E800003FB0CF3B3FBF5F3DFF838C06345EBD994
:100E9000DFF834C0634509D814F0800FD7D1741C33
:100EA00023FA04F4D4E7CCF1000CD4E70136032E86
:100EB00001DC0122D9E70135042D01DC0026F6E72B
:100EC000F0BC7047FF5E4C0900D01213F0B599B02A
:100ED00005460C465C22002101A801F087FF802313
:100EE00000936369059323798DF804306946284699
:100EF000FFF79CFF069BAB4227D0EB1A2ED41E4671
:100F0000109B23F0400310936369159323798DF8A8
:100F1000443010A92846FFF789FF169BAB421FD02B
:100F2000EB1A25D41F462B4B9D4223D90E9BED1A5D
:100F300033D4AE423BDCBE4231DC6D460FCD0FC434
:100F400095E80F0084E80F0006E06D460FCD0FC452
:100F500095E80F0084E80F0019B0F0BD5B42CEE7C2
:100F600010AD0FCD0FC495E80F0084E80F00F3E734
:100F70005B42D7E74023089363690D9308A928468D
:100F8000FFF754FF0E9BAB42D0D108AD0FCD0FC47D
:100F900095E80F0084E80F00DEE76D42C9E710AD69
:100FA0000FCD0FC495E80F0084E80F00D4E7AF42DF
:100FB00007DB08AD0FCD0FC495E80F0084E80F00E4
:100FC000CAE710AD0FCD0FC495E80F0084E80F00FD
:100FD000C2E700BF80778E0630B4054600231C2090
:100FE00000E001331C2818D103EB430251000C4AE6
:100FF0000A441479844210D003EB43014A000849A3
:101000008A5AAA42EDD803EB43025100044A0A442B
:101010005288AA42E5D32046E4E730BC704700BFBF
:10102000F04C001A82B04FF47A7301930D4A936921
:1010300023F0020192698A4201D00A4A916123F0A9
:101040000303094A1168094A914201D943F0040394
:10105000044A9361019B5A1E0192002BFAD102B0FF
:10106000704700BF00000540984C001AFF2C31016A
:101070001230054B53F8200010F0010F02D1C0F3DD
:1010800004607047112070470000054000F1120213
:10109000034B53F82220034B185C00EA9200704780
:1010A00000000540E84C001A08B510280AD8DFE80F
:1010B00000F0440B0D18210924272A2D090930348A
:1010C000383C400000203AE01E4838E01E4BD3F880
:1010D0002C3103F00703042B01D01C482FE0002023
:1010E0002DE0194BD3F82C3103F00703042B27D044
:1010F000164824E0164B186821E0164B18681EE0CD
:10110000154B18681BE0144B586818E000F068F89D
:1011100015E0002100F09AF811E0012100F096F8A6
:101120000DE0022100F092F809E0032100F08EF8B2
:1011300005E0042100F08AF801E04FF4004008BD0A
:101140000648FCE7001BB7000030044040787D01F2
:101150006C4C001A984C001AB802001080F0FA0289
:1011600038B505460C460879FFF79EFF6061194BBC
:101170002B44194A934221D818B3802323600023BB
:10118000A360E360B5FBF0F32361144A954203D9F1
:1011900003FB00F0A84207D021462846FFF796FE41
:1011A000A3688BB1013BA360236983B1E2680AB1F4
:1011B000013AE260013B2361002038BD4FF0FF306F
:1011C000FBE74FF0FF30F8E74FF0FF30F5E74FF067
:1011D000FF30F2E7103A6BFF1005940BFF5E4C09ED
:1011E00030B583B0174D6C6CC4F30360FFF75CFF40
:1011F000154B1B6801932B6C13F0010F20D0C4F327
:101200000743C4F30132C4F30121C4F38015013351
:1012100001320DF1080C614411F8041C14F0800F28
:1012200008D13DB94900B3FBF1F3B0FBF2F000FB8C
:1012300003F003E0B0FBF2F003FB00F003B030BDBD
:101240000020FBE700000540E44C001A38B50C46CE
:101250000846FFF70DFF05462046FFF717FF044637
:101260002846FFF721FF0134B0FBF4F038BDFFFF43
:1012700030B400F11604A40004F1804404F5A02465
:1012800064681B2813D811291AD00E4D25400AB1C5
:1012900045F400650BB145F0010545EA01651630DE
:1012A000800000F1804000F5A020456008E044F097
:1012B00001041630800000F1804000F5A020446059
:1012C00030BC7047FEF7FFE01B280CD816308000BA
:1012D00000F1804000F5A020406810F0010F04D11B
:1012E000C0F304607047112070471120704708B5A3
:1012F000FFF7EAFFFFF7D8FE08BDFFFF71B9012134
:101300000AB141F00401022B0AD0B0F5A17F0AD343
:10131000A0F59170064B43F8301070470321EFE7BA
:1013200041F02001F1E72030024B43F830107047C4
:101330000020054000100540B0F5A17F09D3094AFF
:10134000A0F5917052F8303043F0010342F830308C
:101350007047054A203052F8303043F0010342F81C
:1013600030307047002005400010054010B5B0F542
:10137000A17F09D3A0F591730D4A52F8334014F0C0
:10138000010F07D1002010BD00F12003094A52F8D7
:101390003340F4E7FFF720FEFFF7A9FF14F0E00F5A
:1013A00003D10123B0FBF3F0EDE70223FAE700BF1E
:1013B0000020054000100540094B984209D003F574
:1013C0008053984207D0A3F58023984205D000208F
:1013D000704702207047032070470120704700BF0C
:1013E00000100C4030B583B00446FFF7E5FF012341
:1013F0001A4619460E4D35F81000FFF77FFF0723F8
:10140000A3600023E3656360E3602362E3646365D4
:101410002365084B9C4206D00323E3601023A3629C
:10142000019B03B030BD00232361A3690193F3E75F
:10143000644D001A0020084038B505460C46FFF7F9
:10144000BBFF0C4B33F81000FFF790FF2301B0FBFC
:10145000F3F3D9B2EA6842F08002EA602960C3F38C
:1014600007226A60EA6822F08002EA60B0FBF3F0CB
:10147000000938BD5C4D001A2DE9F04F83B0019092
:101480008846FFF799FF324B33F81000FFF76EFFE5
:1014900006464FF0FF3701244FF0000BA246D94615
:1014A0002AE042424B1C17E00AB31746AB46A2465D
:1014B00099460135AC421ED933093007A4FB00011F
:1014C00004FB0311621908FB02F2002301F09AFAEF
:1014D00002460B460028E4DB9742EAD3002BE8D013
:1014E000190CE6D1022BDFD8002DDDD0E1E717463D
:1014F000AB46A246994601341FB10F2C01D80025F6
:10150000D8E7B9F1000F1ED0019A1146D36843F015
:101510008003D3605FFA89F31360C9F30723536034
:10152000D36823F08003D3604FEA0A13DBB20BF0D9
:101530000F0213438B6233090AFB03F3DA4409FBFE
:101540000AF9B3FBF9F9484603B0BDE8F08F00BFD4
:101550005C4D001A08B50B4A0B4B9A6003F50C73EF
:101560001B6903F47F63202B04D0FFF77FF9FFF79B
:101570003DFA08BD044AD2F8883043F47003C2F83B
:101580008830F2E70000001A00ED00E0044B18601C
:10159000044A136843F0010313600120704700BF41
:1015A0003C000010001000E030B40B4D00EB800058
:1015B0002C182856087094F90110117094F9022023
:1015C0001A7094F90320029B1A7094F90420039B6B
:1015D0001A7030BC704700BF6C4D001A10F1020F3A
:1015E00000F0C780B0F1FF3F00F0C58070B584B057
:1015F0000C4600238DF80F308DF80E308DF80D302D
:101600008DF80C308DF80B300DF10B03019303AB0B
:1016100000930DF10D030DF10E020DF10F01FFF717
:10162000C3FF052C00F2A980DFE804F009812745FB
:1016300063035348FFF7D6FA012004B070BD9DF84C
:101640000F109DF80E309DF80D2042F0D00203EBF4
:1016500041134C4941F823209DF80C309DF90B2093
:10166000012000FA02F1464C03F5006354F82320F0
:1016700022EA010244F82320DFE79DF80F109DF8CD
:101680000E309DF80D2042F0C00203EB41133D499E
:1016900041F823209DF80C309DF90B20012000FA21
:1016A00002F1374C03F5006354F8232022EA0102CB
:1016B00044F82320C1E79DF80F109DF80E309DF8E7
:1016C0000D2042F0D80203EB41132E4941F82320AC
:1016D0009DF80C309DF90B20012000FA02F1284CF6
:1016E00003F5006354F8232022EA010244F8232082
:1016F000A3E79DF80F109DF80E309DF80D2042F0E5
:10170000C80203EB41131F4941F823209DF80C3018
:101710009DF90B20012000FA02F1194C03F500633A
:1017200054F8232022EA010244F8232085E79DF89B
:101730000F109DF80E309DF80D2042F0D00203EB03
:101740004113104941F823209DF80C409DF90B20CE
:10175000012000FA02F10A4B04F5006553F82560F8
:10176000314343F82510D2B203EB441300219954BE
:1017700063E7002070470020704700205DE700BF4E
:1017800000400F400060084010F1020F2DD0B0F172
:10179000FF3F2CD010B584B00C4600238DF80F30DD
:1017A0008DF80E308DF80D308DF80C308DF80B3033
:1017B0000DF10B03019303AB00930DF10D030DF13C
:1017C0000E020DF10F01FFF7EFFE9DF80C309DF8B2
:1017D0000B20211C18BF01215B0103F1402303F5FD
:1017E00070239954012004B010BD002070470020E0
:1017F0007047FEE77047FFFF38B5002401E0013471
:10180000E4B2032C12D865B2094B1A6804F00F0138
:1018100001238B401A42F2D0064B53F824300020AB
:1018200098470123AB40024A1360E8E738BD00BF88
:10183000004008404000001038B5002401E00134A9
:10184000E4B2032C13D865B2094B1A6804F00F01F7
:1018500001238B401A42F2D0231D064A52F823304E
:10186000002098470123AB40014A1360E7E738BDE9
:10187000005008404000001038B5002401E0013459
:10188000E4B2032C14D865B20A4B1A6804F00F01B5
:1018900001238B401A42F2D004F10803064A52F8A1
:1018A0002330002098470123AB40024A1360E6E74B
:1018B00038BD00BF00300C404000001038B5002497
:1018C00001E00134E4B2032C14D865B20A4B1A6863
:1018D00004F00F0101238B401A42F2D004F10C03F3
:1018E000064A52F82330002098470123AB40024AB1
:1018F0001360E6E738BD00BF00400C404000001018
:10190000014BD3E900017047C802001018B1044B25
:1019100007221A607047024B00221A60704700BF0E
:1019200010E000E038B550EA01042AD010F1FF328F
:1019300041F1FF33002B08BF322A27D2144BC3E9F1
:101940000001144B1B68A3FB004503FB01554FF43A
:101950007A7200232046294601F054F80138B0F18C
:10196000807F09D20C4B58600C4AE02182F823108A
:1019700000229A6007221A600120FFF7C7FF0120AA
:1019800038BD0020FFF7C2FF0020F9E70020F7E78D
:1019900080000010F806001010E000E000ED00E00C
:1019A00008B5074A13685168013341F1000113601B
:1019B0005160044B1B6813B1034A1068984708BD77
:1019C000C8020010D0020010C002001008B54FF489
:1019D0007A7000F0F4F908BD00230A2B06D8074AF4
:1019E000D25C824202D00133DBB2F6E70A2B02D886
:1019F000581CC0B270470020704700BF880000101C
:101A000038B504460D46FFF7E7FF08B9002038BD9A
:101A10002946034B185D00F0F3F90120F7E700BFFA
:101A2000544E001A10B50446FFF7D6FF70B9FF20D8
:101A3000FFF7D2FF08B9002009E0431E044AD4543E
:101A4000044B185D00F0E8F9012000E0002010BD13
:101A500088000010544E001A08B5FFF7BDFF28B1EA
:101A6000431E034AFF21D154012000E0002008BD9D
:101A70008800001008B5022908D0032909D009B14F
:101A8000002008BDFFF7A2FF0120FAE7FFF7CAFF19
:101A9000F7E7FFF7E1FFF4E770B5044600EB40021B
:101AA00093001F4AD6587569EDB215F0010F09D0A1
:101AB00020B91C4B1B680BB100209847032C13D096
:101AC000052C18D015F0200F0DD0736813F0020FFD
:101AD00009D024B9144B1B680BB100209847032C84
:101AE00010D0052C15D070BD104B1B68002BE7D013
:101AF00000209847E4E70E4B1B68002BE2D0002043
:101B00009847DFE70B4B1B68002BEAD00020984773
:101B1000E7E7094B1B68002BE5D000209847E2E778
:101B2000604E001AD4020010E0020010D80200102B
:101B3000DC020010E4020010E802001041B300EBE8
:101B400040039A001E4B134493F90A30002B18DB14
:101B500003F1604303F56143A02283F8002300EB07
:101B600040008200164B134493F90A30002B25DB0A
:101B700003F01F015B0901228A40124941F823202A
:101B8000704703F00F03104A1A44A0231376E6E7C8
:101B900000EB400082000A4B134493F90A30002BFB
:101BA0000CDB03F01F015B0901228A402033054949
:101BB00041F82320BFF34F8FBFF36F8F704700BFF3
:101BC000604E001A00E100E0FCEC00E011B10129D8
:101BD0001DD0704782B101280FD9C31EDBB2012B83
:101BE0000ED905280FD0052300EB400082001349D1
:101BF0008A5851680B4353607047114B1A60ECE7E9
:101C0000104B1A60EDE7104B1A600523ECE7002A31
:101C1000F2D0012807D9C31EDBB2012B06D9052853
:101C200007D00223E0E7094B1A60F4E7084B1A607B
:101C3000F5E7084B1A600223D6E700BF604E001A92
:101C4000D4020010D8020010DC020010E0020010E4
:101C5000E4020010E802001000EB40008200084B94
:101C6000134493F90A30002B08DB03F01F015B09D2
:101C700001228A406033034941F82320704700BFA6
:101C8000604E001A00E100E000EB40008300034AD0
:101C9000D358586900F00100704700BF604E001A29
:101CA00000EB40008300034AD358586900F020003D
:101CB000704700BF604E001A00EB40008300024AEC
:101CC000D3581868C0B27047604E001A00EB40004D
:101CD0008300024AD3581960704700BF604E001A53
:101CE0002DE9F84380468946194C45002A1893008F
:101CF000E618E7583846FFF775FB49463846FFF7C0
:101D00009BFB0723BB603B680123FB65307973793C
:101D1000B27942F018020F4903EB401341F8232037
:101D2000F079337A727A42F0D00203EB401341F833
:101D30002320B8F1010F01D0BDE8F883064AD36C27
:101D400043F03003D3641A22C1F80823F4E700BF3C
:101D5000604E001A006008400010084038B5054683
:101D60000C46FFF791FF034608B9184638BD2846D0
:101D7000FFF7A2FF20700123F7E738B504460D46B0
:101D80002046FFF78DFF0028FAD029462046FFF7AE
:101D90009DFF38BD38B505460C46217821B128464F
:101DA000FFF7EBFF0134F8E738BD08B50320FFF774
:101DB00073FE08BD08B50520FFF76EFE08BD10B51F
:101DC00004464FF08040FEF70EFF21464FF0804062
:101DD000FEF7A4FE4FF08042536823F004135360D3
:101DE00010BDFFFF4FF08043D3F8003203FB00F03B
:101DF000024BA3FB0030C009704700BF8180808088
:101E000010B50130C4B20846FFF7ECFF80344FF044
:101E1000804343F8240010BD10B504460F4A12F960
:101E20001030DBB202EB400292F901205B0153FA61
:101E300082F30B4A112142F82310411C0246C9B219
:101E40004FF08040FEF748FE4FF08043D3F8003259
:101E500000212046FFF7D4FF10BD00BFA84E001A96
:101E60000060084008B5044B1B681B68DB68034A28
:101E70001068984708BD00BFFC060010EC02001077
:101E800008B5FEF7C9FF1A4B1868FFF77FFB012062
:101E90000021FFF747FD05210020FFF79FFB0021F0
:101EA0002420FFF79BFB00212520FFF797FB002153
:101EB0002620FFF793FB00212720FFF78FFB01214E
:101EC0002820FFF78BFB01212920FFF787FB012149
:101ED0002A20FFF783FB01212B20FFF77FFB012145
:101EE0002C20FFF77BFB01212D20FFF777FB08BD9E
:101EF000F80600102DE9F04714469A46023BDBB283
:101F0000222B03D806460F46154605E00020107028
:101F10002FE01D4606460F465FFA8AF84FF000098B
:101F200042464B463046394600F01CFDA8FB0023D4
:101F3000B21A23322B46DFF840C06244127803F80D
:101F4000012B50EA0102E4D1002E77F1000203DBFD
:101F5000002203F8012909E02D221A70AB1CF7E7D3
:101F60001A78217803F8011904F8012BA342F7D855
:101F70000120BDE8F08700BFC44E001A08B550EA42
:101F8000010306D1064B30221A7000225A70044811
:101F900008BD034A002313700A23FFF7ABFFF6E7DF
:101FA000000700102DE9F84380468946FFF7A8FC9A
:101FB00006460F46FFF7A4FC841B61EB0705064BA2
:101FC000D3E900234046494600F01CFD8D4208BF7E
:101FD0008442EFD3BDE8F88380000010012303FAA8
:101FE00000F0014B5862704700700840F8B5124B82
:101FF0001A5C124BD969012383400B420CD0104963
:102000008C6802EB4202D1000E4A0A4454600B4A2B
:10201000D361FFF7E3FFF8BD09498E68094D510010
:102020008F18FC0027462C44A6606468361B3D448C
:10203000EE60024A1362ECE70C4F001A0070084091
:10204000004008409400001008B50020FFF7CEFFC4
:1020500008BD08B50120FFF7C9FF08BD08B502207B
:10206000FFF7C4FF08BDFFFF81F0004102E000BFA1
:1020700083F0004330B54FEA41044FEA430594EA48
:10208000050F08BF90EA020F1FBF54EA000C55EA83
:10209000020C7FEA645C7FEA655C00F0E2804FEA54
:1020A0005454D4EB5555B8BF6D420CDD2C4480EA36
:1020B000020281EA030382EA000083EA010180EA66
:1020C000020281EA0303362D88BF30BD11F0004FB4
:1020D0004FEA01314FF4801C4CEA113102D04042EA
:1020E00061EB410113F0004F4FEA03334CEA133325
:1020F00002D0524263EB430394EA050F00F0A7803D
:10210000A4F10104D5F1200E0DDB02FA0EFC22FA37
:1021100005F2801841F1000103FA0EF2801843FA2B
:1021200005F359410EE0A5F120050EF1200E012A1C
:1021300003FA0EFC28BF4CF0020C43FA05F3C0185A
:1021400051EBE37101F0004507D54FF0000EDCF1D3
:10215000000C7EEB00006EEB0101B1F5801F1BD37C
:10216000B1F5001F0CD349085FEA30004FEA3C0C80
:1021700004F101044FEA445212F5800F80F09A8076
:10218000BCF1004F08BF5FEA500C50F1000041EB7A
:10219000045141EA050130BD5FEA4C0C404141EB7E
:1021A000010111F4801FA4F10104E9D191F0000FA5
:1021B00004BF01460020B1FA81F308BF2033A3F128
:1021C0000B03B3F120020CDA0C3208DD02F1140C1F
:1021D000C2F10C0201FA0CF021FA02F10CE002F15A
:1021E0001402D8BFC2F1200C01FA02F120FA0CFC53
:1021F000DCBF41EA0C019040E41AA2BF01EB04519C
:10220000294330BD6FEA04041F3C1CDA0C340EDC99
:1022100004F11404C4F1200220FA04F001FA02F3DC
:1022200040EA030021FA04F345EA030130BDC4F19A
:102230000C04C4F1200220FA02F001FA04F340EA8F
:102240000300294630BD21FA04F0294630BD94F040
:10225000000F83F4801306BF81F480110134013D27
:102260004EE77FEA645C18BF7FEA655C29D094EA98
:10227000050F08BF90EA020F05D054EA000C04BF16
:102280001946104630BD91EA030F1EBF0021002001
:1022900030BD5FEA545C05D14000494128BF41F0A0
:1022A000004130BD14F580043CBF01F5801130BD04
:1022B00001F0004545F0FE4141F470014FF000008F
:1022C00030BD7FEA645C1ABF194610467FEA655C40
:1022D0001CBF0B46024650EA013406BF52EA0335E2
:1022E00091EA030F41F4002130BD00BF90F0000FD0
:1022F00004BF0021704730B54FF4806404F132040C
:102300004FF000054FF0000150E700BF90F0000FC4
:1023100004BF0021704730B54FF4806404F13204EB
:1023200010F0004548BF40424FF000013EE700BFBB
:1023300042004FEAE2014FEA31014FEA02701FBF4B
:1023400012F07F4393F07F4F81F06051704732F07D
:102350007F4208BF704793F07F4F04BF41F40021D4
:10236000704730B54FF4607401F0004521F0004132
:102370001CE700BF50EA010208BF704730B54FF0BC
:1023800000050AE050EA010208BF704730B511F0BD
:10239000004502D5404261EB41014FF4806404F1F5
:1023A00032045FEA915C3FF4D8AE4FF003025FEA7B
:1023B000DC0C18BF03325FEADC0C18BF033202EBFF
:1023C000DC02C2F1200300FA03FC20FA02F001FA59
:1023D00003FE40EA0E0021FA02F11444BDE600BFFC
:1023E00070B54FF0FF0C4CF4E06C1CEA11541DBFAB
:1023F0001CEA135594EA0C0F95EA0C0F00F0DEF876
:102400002C4481EA030621EA4C5123EA4C5350EA5A
:10241000013518BF52EA033541F4801143F48013AB
:1024200038D0A0FB02CE4FF00005E1FB02E506F03C
:102430000042E0FB03E54FF00006E1FB03569CF091
:10244000000F18BF4EF0010EA4F1FF04B6F5007F97
:1024500064F5407404D25FEA4E0E6D4146EB060609
:1024600042EAC62141EA55514FEAC52040EA5E5092
:102470004FEACE2EB4F1FD0C88BFBCF5E06F1ED83C
:10248000BEF1004F08BF5FEA500E50F1000041EB73
:10249000045170BD06F0004646EA010140EA020020
:1024A00081EA0301B4EB5C04C2BFD4EB0C0541EA42
:1024B000045170BD41F480114FF0000E013C00F357
:1024C000AB8014F1360FDEBF002001F0004170BD7B
:1024D000C4F10004203C35DA0C341BDC04F1140494
:1024E000C4F1200500FA05F320FA04F001FA05F220
:1024F00040EA020001F0004221F0004110EBD370ED
:1025000021FA04F642EB06015EEA430E08BF20EA18
:10251000D37070BDC4F10C04C4F1200500FA04F3BB
:1025200020FA05F001FA04F240EA020001F000414D
:1025300010EBD37041F100015EEA430E08BF20EAC0
:10254000D37070BDC4F1200500FA05F24EEA020E08
:1025500020FA04F301FA05F243EA020321FA04F037
:1025600001F0004121FA04F220EA020000EBD370EE
:102570005EEA430E08BF20EAD37070BD94F0000FEE
:102580000FD101F00046400041EB010111F4801F22
:1025900008BF013CF7D041EA060195F0000F18BFD3
:1025A000704703F00046520043EB030313F4801F0F
:1025B00008BF013DF7D043EA0603704794EA0C0FC9
:1025C0000CEA135518BF95EA0C0F0CD050EA4106DF
:1025D00018BF52EA4306D1D181EA030101F000415C
:1025E0004FF0000070BD50EA410606BF1046194684
:1025F00052EA430619D094EA0C0F02D150EA013690
:1026000013D195EA0C0F05D152EA03361CBF1046D0
:1026100019460AD181EA030101F0004141F0FE416F
:1026200041F470014FF0000070BD41F0FE4141F4F3
:10263000780170BD70B54FF0FF0C4CF4E06C1CEAF3
:1026400011541DBF1CEA135594EA0C0F95EA0C0FA8
:1026500000F0A7F8A4EB050481EA030E52EA033563
:102660004FEA013100F088804FEA03334FF0805584
:1026700045EA131343EA12634FEA022245EA1115B1
:1026800045EA10654FEA00260EF000419D4208BF62
:10269000964244F1FD0404F5407402D25B084FEA0F
:1026A0003202B61A65EB03055B084FEA32024FF4BB
:1026B00080104FF4002CB6EB020E75EB030E22BF18
:1026C000B61A754640EA0C005B084FEA3202B6EBD8
:1026D000020E75EB030E22BFB61A754640EA5C0087
:1026E0005B084FEA3202B6EB020E75EB030E22BF17
:1026F000B61A754640EA9C005B084FEA3202B6EB18
:10270000020E75EB030E22BFB61A754640EADC00D6
:1027100055EA060E18D04FEA051545EA16754FEA38
:1027200006164FEAC30343EA52734FEAC2025FEA56
:102730001C1CC0D111F4801F0BD141EA00014FF0E5
:1027400000004FF0004CB6E711F4801F04BF0143B6
:102750000020B4F1FD0C88BFBCF5E06F3FF6AFAED2
:10276000B5EB030C04BFB6EB020C5FEA500C50F162
:10277000000041EB045170BD0EF0004E4EEA1131E5
:1027800014EB5C04C2BFD4EB0C0541EA045170BDEC
:1027900041F480114FF0000E013C90E645EA060E30
:1027A0008DE60CEA135594EA0C0F08BF95EA0C0F5E
:1027B0003FF43BAF94EA0C0F0AD150EA01347FF4A6
:1027C00034AF95EA0C0F7FF425AF104619462CE77D
:1027D00095EA0C0F06D152EA03353FF4FDAE1046E0
:1027E000194622E750EA410618BF52EA43067FF431
:1027F000C5AE50EA41047FF40DAF52EA43057FF4C1
:10280000EBAE12E74FF0FF3C06E000BF4FF0010CCB
:1028100002E000BF4FF0010C4DF804CD4FEA410C2F
:102820007FEA6C5C4FEA430C18BF7FEA6C5C1BD0FC
:1028300001B050EA410C0CBF52EA430C91EA030F7D
:1028400002BF90EA020F0020704710F1000F91EADA
:10285000030F58BF994208BF90422CBFD8176FEAA8
:10286000E37040F0010070474FEA410C7FEA6C5C76
:1028700002D150EA013C07D14FEA430C7FEA6C5C7D
:10288000D6D152EA033CD3D05DF8040B704700BFA9
:102890008446104662468C461946634600E000BFF7
:1028A00001B5FFF7B7FF002848BF10F1000F01BDC9
:1028B0004DF808EDFFF7F4FF0CBF012000205DF894
:1028C00008FB00BF4DF808EDFFF7EAFF34BF012019
:1028D00000205DF808FB00BF4DF808EDFFF7E0FFB2
:1028E00094BF012000205DF808FB00BF4DF808ED03
:1028F000FFF7CEFF94BF012000205DF808FB00BF6A
:102900004DF808EDFFF7C4FF34BF012000205DF84B
:1029100008FB00BF4FEA410212F5001215D211D593
:102920006FF47873B3EB625212D94FEAC12343F0CC
:10293000004343EA505311F0004F23FA02F018BF4E
:10294000404270474FF00000704750EA013005D117
:1029500011F0004008BF6FF0004070474FF00000DA
:10296000704700BF7BB972B90029BEBF00204FF08D
:10297000004106E008BF00281CBF6FF000414FF087
:10298000FF3000F0DDB9ADF1080C6DE904CE00298F
:1029900009DB002B1ADB00F06BF8DDF804E0DDE961
:1029A000022304B07047404261EB4101002B1BDB66
:1029B00000F05EF8DDF804E0DDE9022304B04042F7
:1029C00061EB4101524263EB43037047524263EBB8
:1029D000430300F04DF8DDF804E0DDE9022304B024
:1029E000404261EB41017047524263EB430300F008
:1029F0003FF8DDF804E0DDE9022304B0524263EB66
:102A00004303704753B94AB9002908BF00281CBFC7
:102A10004FF0FF314FF0FF3000F092B9ADF1080CEC
:102A20006DE904CE00F024F8DDF804E0DDE90223CE
:102A300004B07047D0B500220B4B06460F46FFF797
:102A4000CFFC00F07FF90446FFF750FC0022074B53
:102A5000FFF7C6FC02460B4630463946FFF708FB37
:102A600000F070F92146D0BD0000F03D0000F041BB
:102A70002DE9F047089E04468846002B40F08580EB
:102A80008A42154648D9B2FA82F24AB1C2F1200709
:102A900001FA02F320FA07F7954047EA0308944049
:102AA0004FEA154E230CB8FBFEF71FFA85FC0EFB10
:102AB000178843EA084307FB0CF1994209D9EB1840
:102AC00007F1FF3080F0E380994240F2E080023F5E
:102AD0002B445B1AA4B2B3FBFEF00EFB103344EAA6
:102AE000034400FB0CFCA44509D92C1900F1FF3369
:102AF00080F0CB80A44540F2C88002382C4440EAE4
:102B00000740A4EB0C0400271EB1D4400023C6E903
:102B100000433946BDE8F087002A53D0B2FA82F26A
:102B2000002A40F0B680491B4FEA154E1FFA85F87F
:102B30000127B1FBFEFC230C0EFB1C1143EA0143F1
:102B400008FB0CF1994207D9EB180CF1FF3002D2C7
:102B5000994200F2EC808446591AA3B2B1FBFEF010
:102B60000EFB101443EA044408FB00F8A04507D903
:102B70002C1900F1FF3302D2A04500F2DC80184688
:102B8000A4EB080440EA0C40BEE78B4208D9002EB3
:102B900078D00027C6E9000138463946BDE8F087FD
:102BA000B3FA83F77FB98B4202D3824200F2BD8031
:102BB000841A61EB030301209846002EA9D0C6E9D0
:102BC0000048A6E7FFDEC7F12005BB4022FA05FC5E
:102BD0004CEA030C01FA07F420FA05F821FA05F390
:102BE0004FEA1C4E48EA0404B3FBFEF9210C0EFB2D
:102BF00019331FFA8CF841EA034309FB08FA9A4596
:102C000002FA07F200FA07F10BD91CEB030309F1F2
:102C1000FF3080F088809A4540F28580A9F1020952
:102C20006344A3EB0A03A4B2B3FBFEF00EFB103324
:102C300044EA034400FB08F8A04508D91CEB04044F
:102C400000F1FF336BD2A04569D90238644440EAF1
:102C50000940A4EB0804A0FB02894C45C6464B463C
:102C600054D351D0002E69D0B1EB0E0264EB0304B3
:102C700004FA05F522FA07F3FC401D43C6E90054A7
:102C8000002746E73746304643E7184637E707460A
:102C90001FE7C2F1200320FA03F7954001FA02F082
:102CA00021FA03F34FEA154E3843010CB3FBFEF74C
:102CB0001FFA85F80EFB173341EA034107FB08F3BF
:102CC0008B4204FA02F407D9691807F1FF3C28D2B5
:102CD0008B4226D9023F2944CB1A81B2B3FBFEF0C6
:102CE0000EFB103341EA034100FB08F38B4207D986
:102CF000691800F1FF3C10D28B420ED902382944EA
:102D0000C91A40EA074714E74145ABD2B8EB020EB7
:102D100069EB0C0201381346A4E76046F0E7184659
:102D200095E76746D8E781467BE7384645E7ACF14B
:102D3000020C2B4410E702382C4421E73746E8E622
:102D4000704700BF4A0011D212F5001211D20DD502
:102D50006FF47873B3EB62520ED44FEAC12343F0A1
:102D6000004343EA505323FA02F070474FF000004B
:102D7000704750EA013002D14FF0FF3070474FF0FA
:102D80000000704770B50D4D0D4C641BA41000265B
:102D9000A64209D10B4D0C4CFDF705FD641BA41098
:102DA0000026A64205D170BD55F8043B9847013670
:102DB000EEE755F8043B98470136F2E7E451001A74
:102DC000E451001AE451001AE851001A70477047A4
:102DD0000A44914200F1FF3300D1704710B511F859
:102DE000014B03F8014F9142F9D110BD0244034653
:102DF000934200D1704703F8011BF9E7F8B5CD1CE9
:102E000025F0030508350C2D38BF0C25002D06468E
:102E100001DBA94203D90C2333600020F8BD01F087
:102E2000E1F921490A6814469CB9204F3B6823B94F
:102E300021463046FDF7B8FC386029463046FDF79C
:102E4000B3FC431C23D10C233360304601F0D0F98E
:102E5000E3E723685B1B17D40B2B03D923601C44C7
:102E6000256004E06368A2420CBF0B6053603046EB
:102E700001F0BEF904F10B00231D20F00700C21A77
:102E8000CCD01B1AA350C9E722466468CCE7C41C07
:102E900024F00304A042E3D0211A3046FDF784FC5D
:102EA0000130DDD1CFE700BFF0020010F4020010C6
:102EB000034611F8012B03F8012B002AF9D17047C2
:102EC000034613F8012B002AFBD1181A013870476A
:102ED00070B504460D4645EC104B164601F054FC07
:102EE00051EC100B7EB1C5F30A53C3F16B03002BF9
:102EF00009DD1B0503F17F55002405F54015224629
:102F00002B46FFF76DFA70BD2DE9F04FA1B01F46BB
:102F100000231C939B4B04901B68179218460E4687
:102F20000593FFF7CDFF4FF0000A04464FF0000B6A
:102F30001B961B9A13780D2B32D8092B36D2002BF7
:102F40003ED000230C931B9D2B78302B40F0A980A2
:102F50006B78582B01D0782B67D10C9B01931CAB5D
:102F6000009302971DAB884A04981BA900F046FE07
:102F700010F00704064605D0062C2BD1013500239E
:102F80001B950C93179B002B40F076850C9BE3B1AF
:102F900052460BF1004343EC102B21B0BDE8F08FFB
:102FA0002B2B06D02D2B13D0202BCAD101321B92F4
:102FB000BFE700230C93531C1B935378002BC2D103
:102FC000179B1B96002B40F0558552465B46E2E767
:102FD0000123EFE71C9A3AB135211EA801F0CBFC82
:102FE0001C99049801F03EF9013C042C06D8DFE856
:102FF00004F00A0314170A00DDE91EAB3107C1D53E
:103000004BF0004BBEE7DDE91EA31D9A23F48013AD
:1030100002F2334243EA025BF0E7DFF870B1EDE71A
:103020006FF0004B4FF0FF3AE8E71B9B5A1C1B92D6
:103030005B78302BF9D0002BA4D001234FF000098E
:1030400006931B9B0993CDF81C90C8460A221B9837
:103050000578A5F13003D9B2092924D9224605996A
:1030600001F0DAFC78B300202B4644460590024676
:10307000652B01D0452B12D11CB9069B03439FD071
:1030800000241B9E731C1B9373782B2B72D02D2B4B
:1030900075D00027A3F1300109297DD91B960025A1
:1030A0009AE00023CAE7B8F1080FD8BF079900F1EA
:1030B0000100DABF02FB0133079302FB093908F173
:1030C00001081B90C3E71B9B1A191B921B5DB8F1EB
:1030D000000F36D005904446A3F13002092A12D9D8
:1030E0000122C5E71B9B5A1C1B925B780130302BD9
:1030F000F8D0A3F13102082A00F2C3841B9A05908C
:10310000002009920446303B00F1010213D00599DA
:1031100011440591224605190A21AA4213D1221809
:10312000082A04F1010404441ADC07990A2202FB6C
:103130000133079300221B9B591C1B915B7810469F
:10314000CAE74046D3E7082A04DC079F4F430797A6
:103150000132E2E7571C102FD8BF01FB09F9F7E74E
:10316000102CDCBF0A2202FB0939E3E70023059398
:10317000012282E70027B31C1B93B3788AE701275B
:10318000F9E700BFD050001A7C50001A0000F07F11
:103190001B9B591C1B915B78302BF9D0A3F131019B
:1031A00008293FF67CAFA3F1300C1B9B08934FF02E
:1031B0000A0E1B9B591C1B915B78A3F13005092D4E
:1031C0002ED9089D491B082944F61F6502DC654578
:1031D000A8BF654607B16D42002C4BD1069901434B
:1031E0007FF4D0AE002A7FF4EBAE4E2B22D01CDC55
:1031F000492B7FF4E5AE9A491BA800F035FF002863
:103200003FF4DEAE1B9B9749013B1BA81B9300F0CC
:103210002BFF10B91B9B01331B93DFF860B2B1E6A3
:103220000EFB0C3CACF1300CC3E7692BE3D06E2BEA
:103230007FF4C6AE8C491BA800F016FF00283FF4AF
:10324000BFAE1B9B1B78282B0ED11EAA87491BA83B
:1032500000F01EFF052807D11F9BDDF878A043F082
:10326000FF4B4BF4E00B8DE6814801F0CDFB5BECAE
:1032700010AB87E6059B0798EB1AB8F1000F08BF63
:10328000A046102C08932646A8BF1026FFF72EF85C
:10329000092C82468B4613DD764B03EBC60353E9BC
:1032A0001223FFF79DF8824648468B46FFF71EF82B
:1032B00002460B4650465946FEF7DCFE82468B46D8
:1032C0000F2C38DC089B002B3FF45CAE24DD162B62
:1032D0000BDC684C04EBC304D4E9000152465B46A6
:1032E000FFF77EF882468B464CE6089AC4F1250328
:1032F000934220DB5F4DC4F10F0405EBC40152463D
:103300005B46D1E90001FFF76BF8089B1C1B05EB3E
:10331000C405D5E90023E3E7089B16330BDB059BC7
:10332000544A5D1B02EBC505D5E9002350465946BA
:10333000FFF780F9D6E7089BA61B1E44002E6EDD22
:1033400016F00F030AD04B4901EBC30152465B460E
:10335000D1E90001FFF744F882468B4636F00F06AC
:103360004ED0B6F59A7F23DD002405940994079486
:10337000049ADFF808B1222313604FF0000A099B7A
:10338000002B3FF4FFAD1C99049800F06BFF0799E8
:10339000049800F067FFDDE9040100F063FF09997C
:1033A000049800F05FFF2146049800F05BFFE9E518
:1033B0000023DFF8C4903611504659461F46012EAF
:1033C00021DC0BB182468B462B4BABF1547B03EBDC
:1033D000C70752465B46D7E90001FFF701F8274BC4
:1033E0000A460B4026498B428246BDD8A1F5801182
:1033F0008B4286BFDFF88CB04FF0FF3A02F1547B6E
:103400000023069379E0F20706D509EBC703D3E959
:103410000023FEF7E5FF012301377610CFE7EFD059
:10342000764216F00F020AD0124B03EBC20350464D
:103430005946D3E90023FFF7FDF882468B46361143
:10344000DED01F2E20DD0024059409940794049AF1
:1034500022234FF0000A4FF0000B13608FE700BFEC
:103460007050001A7350001A7950001A9050001AC8
:10347000DD50001A1051001AE850001A0000F07FC9
:103480000000A07CFFFFEF7F16F0100318BF6A2337
:10349000AE4F0693504659460023F20704D5D7E9AC
:1034A0000023FEF79DFF0123761007F10807F4D1F2
:1034B0000BB182468B46069BBBB1CBF30A53C3F1DB
:1034C0006B03002B594610DD1F2B40F32981342B51
:1034D000DEBF203B4FF0FF3202FA03F34FF0000A49
:1034E000CCBF4FF05C7B03EA010B00220023504667
:1034F0005946FFF7DDF90028A5D1079B0093424606
:1035000023460999049800F0FFFE099000283FF433
:103510002BAF059B5D1B089B002BB4BF2B460023E4
:103520000E93089B002423EAE37316930594099BEA
:103530000498596800F062FE079000283FF418AF25
:10354000099B1A69023203F10C0192000C30FFF75B
:103550003FFC1EAA1DA94BEC10AB0498CDE90AABA9
:1035600001F088F91C9000283FF402AF0121049873
:1035700000F058FF0590034600283FF4F9AE1D9E69
:103580001E9A002EABBF0E9B169B169D0E9FACBFC6
:10359000F7189D1B069BF61A16446D4B013E9E4282
:1035A000C2F1360280F2C3809B1B1F2BC2BFC6F143
:1035B0007F4606F57F0606F57B464FF00108C8BF3B
:1035C000E236A2EB0302DABF08FA03F8002608FA93
:1035D00006F607EB0209069B4F4515441D443B4682
:1035E000A8BF4B46AB42A8BF2B46002BC2BFA9EBDE
:1035F0000309ED1AFF1A0E9B002B17DD1A46DDE9B1
:10360000040100F0A9FF059000283FF4B1AE014687
:103610001C9A049800F00FFF0D9000283FF4A8AE0C
:103620001C99049800F01EFE0D9B1C93B9F1000F2D
:1036300000F38180089B002B08DD169A07990498F7
:1036400000F08AFF079000283FF492AE002D08DDBD
:103650002A460799049800F0CDFF079000283FF410
:1036600087AE002F08DD3A46DDE9040100F0C2FF15
:10367000059000283FF47CAE079A1C99049801F04D
:1036800026F8044600283FF473AEC3680D93002368
:10369000C360059901F001F800285FDA0D9B53EA39
:1036A0000A0340F08180CBF31303002B7CD12BF075
:1036B00000431B0D1B05B3F1D66F75D9636913B9B0
:1036C0002369012B70DD21460122049800F092FF4E
:1036D0000599044600F0E1FF002865DD06991D4AC2
:1036E0005B4600297FD002EA0B01B1F1D66F7ADC8C
:1036F000B1F15C7F7FF7ABAE174A0023CDE91432FE
:103700005046DDE914235946FEF76AFE0B46034393
:1037100004BF049A222382468B4608BF136032E618
:103720004FF0FF3202FA03F303EA0A0ADDE600264D
:103730004FF001084DE74A461C99049800F05AFFE3
:103740001C9000287FF476AF12E600BFA850001A44
:1037500002FCFFFF0000F07F000050395D4660D1A1
:103760000D9ACBF3130342B3B74A934228D1069B79
:103770005046EBB1B54A2A40B2F1D46F4FF0FF3159
:1037800019D8120DC2F16B0301FA03F3984217D155
:10379000AF4B9D4202D101303FF4EAADAB4B2B4021
:1037A00003F5801B4FF0000A069B002BA4D1EAE52D
:1037B0004FF0FF33EAE70B46E8E753EA0A038DD000
:1037C000DEB12E42F0D00D9B069A50465946BBB151
:1037D000FFF77EFB02460B46DDE90A01FEF74AFCD5
:1037E00082468B46E0E71340A3F580136FEA135B34
:1037F0006FEA0B5B4FF0FF3AD6E718EA0A0FE1E7F2
:10380000FFF766FB02460B46DDE90A01FEF730FCD6
:103810000022002382468B46FFF74AF80028C3D0D7
:1038200015E60599204601F073F857EC106B00225D
:103830004FF0804310EE100A3946FFF74DF800288C
:1038400073D00D9B002B46D0DFF808924FF0000894
:10385000804F00267D4B2B400F930F9A7E4B9A4250
:1038600040F0AB80DDE90A23A5F1547B4BEC10ABB3
:10387000CDE9142300F088FF404653EC102B494655
:10388000FEF7AEFD52465B46FEF7F4FB0B466F4972
:10389000724A1940914282465BD90B9B02F15472E5
:1038A000934203D10A9B01333FF462ADDFF8A0B12C
:1038B0004FF0FF3A1C99049800F0D4FC0799049843
:1038C00000F0D0FCDDE9040100F0CCFC21460498B6
:1038D00000F0C8FC2BE6BAF1000F18D1CBF31303AC
:1038E000DBB900225B4B30463946FEF7EBFFC8B927
:1038F0003046394600225A4BFEF772FD06460F4607
:1039000007F1004318961993DDE91889A2E7BAF187
:10391000010F02D1002D3FF49AAD4FF00008DFF8FF
:10392000449195E700264E4FEAE74D4B3046394625
:103930000022FEF755FD0D9B06460F4633B901F1F7
:10394000004310901193DDE9108983E7CDE91067FA
:10395000F9E703F1547B069B002BABD12BF000431E
:103960001B0D0F9A1B059A42A4D13046394601F02F
:1039700073F8FEF707FD02460B4630463946FEF760
:1039800077FBCBF313030D9A43EA0A03134306466E
:103990000F4669D026A3D3E90023FEF793FF002842
:1039A0007FF4F1AC24A3D3E9002330463946FEF777
:1039B000A7FF00283FF47EAFE5E4069B1BB30F9BF7
:1039C000B3F1D46F1FD81EA3D3E900233046394684
:1039D000FEF782FF90B139463046FFF7B3F9002871
:1039E00008BF0120FEF782FC0D9B06460F46DBB99F
:1039F00001F1004312901393DDE912890F9A09F146
:103A0000D663A3EB02099DED0A0B00F0BDFE404614
:103A100053EC102B4946FEF7E3FCDDE90A23FEF7E1
:103A200029FB82468B4696E7CDE91267E4E700BFA3
:103A30009535A094FFFFDF3F35E5AF350000E03F4F
:103A40000000C0FFFFFFDF41FFFF0F000000F07F1D
:103A5000FFFFEF7F0000F03F0000E07FFFFF9F7C53
:103A60000000E03F0000F0BF0BA3D3E90023FEF706
:103A700029FF9EE700230C93179A1B9B1360FFF707
:103A800085BA652B3FF472AB452B3FF46FAB012237
:103A9000FFF7A4BBAFF300809535A094FFFFCF3FA5
:103AA0000A4601460248034B0068FFF72DBA00BFE3
:103AB000DC00001044010010134B2DE9F0411D689B
:103AC000AC6D06460F46B4B9502000F071FBA865F6
:103AD000C0E90044C0E90244C0E90444C0E90A4422
:103AE000C0E90C44C0E90E44C0E91044C0E91244E6
:103AF000846104774462AA6D394630460123BDE8EB
:103B0000F04100F003B800BFDC000010F0B518B9B8
:103B1000106808B9F0BD204604460F4614F8015B52
:103B200017F8016B1EB965B915602846F2E7B54272
:103B3000F6D1002BEFD114600370EBE71C460CE0CC
:103B400015B914F8013B0E4616F8015BAB42F7D1EC
:103B5000002BF3D0002304F8013C1460DAE7F0B541
:103B600006694B119E4200F1140430DD11F01F0173
:103B700004EB860604EB830208D12146B2420B46D1
:103B800011D252F8043B41F8043BF7E754F82350B4
:103B9000C1F1200CCD4004322346964217460CD882
:103BA0001D6005B104331A1BA3424FEAA20208BFED
:103BB0000023026108BF4361F0BD3F6807FA0CF7BC
:103BC0003D4343F8045B52F8045BCD40E5E72346F0
:103BD000E9E7A0F13003092B02D82038C0B27047C2
:103BE000A0F16103052B01D84738F7E7A0F14103A5
:103BF000052B01D82738F1E7002070472DE9F04F59
:103C00008BB08B460693B74B02901B680393184604
:103C10009046FFF755F9039BDBF800200190034421
:103C200013F8013C0793931CC2F1FF2202F57F02B7
:103C3000FE3202EB030A1F4613F8010B3028F8D0BE
:103C4000FFF7C7FF0446002867D1019A0399384659
:103C500000F0E2FE002863D1019BF85CFE18FFF73C
:103C6000B8FF00285FD03346187830281F4603F18C
:103C70000103F9D0FFF7ADFFB0FA80F56D093446C6
:103C80004FF0010A3A46164601323078FFF7A1FF9D
:103C90000028F8D1019A0399304600F0BDFE50B9D2
:103CA00054B9019BF4182246164601323078FFF7CA
:103CB00090FF0028F8D10CB1A41BA4003378502B3E
:103CC00001D0702B3DD173782B2B2ED02D2B30D0E3
:103CD000711C4FF000090878FFF77BFF431EDBB231
:103CE000182B2ED8A0F1100211F8010FFFF771FF69
:103CF000431EDBB2182B1FD9B9F1000F00D052427E
:103D00001444CBF80010F5B1BAF1000F14BF00272E
:103D1000062738460BB0BDE8F08F00252C46B1E7EA
:103D20003E460125CAE70446FBE74FF00009B11CF7
:103D3000D1E74FF00109FAE70A2303FB0202103A28
:103D4000D2E73146DDE7F31B013B2946072B4FDC69
:103D5000029800F053FA019B00F114094FF0000B98
:103D6000C3F101030546CDF81090DA460893B74237
:103D700041D3049840F804ABA0EB090080102861FF
:103D80004701504600F0FEFAD8F800603F1AB742EB
:103D900063DDBF1B3946284600F007FE8246A8B106
:103DA0007B1E591103F01F024FF0010A59F8211030
:103DB0000AFA02F20A4209D0534505DDB91E284627
:103DC00000F0F3FD002845D14FF0020A394628469D
:103DD000FFF7C5FE3C44D8F80830A3424BDA294629
:103DE000029800F03FFA149A00231360A32790E78B
:103DF00001315B10AAE7731E0593079A16F8013C80
:103E0000934217D0BBF1200F06D1049B43F804ABBB
:103E10004FF0000A0493D34616F8010CFFF7D9FEC1
:103E200000F00F0000FA0BF04AEA000A0BF1040B55
:103E3000059B0DE0059B089A1344BB42E2D318464C
:103E4000019A0399099300F0E7FD099B0028D9D155
:103E50001E468CE74FF0030AB8E709DAF71B29463C
:103E60003A46029800F0C6FBE41B054600F114092F
:103E70004FF0000AAFE7D8F80400A0426DDD041B44
:103E8000A64231DCD8F80C30022B22D0032B24D0F0
:103E9000012B15D1A64213D1012E0BD1069AD8F8C9
:103EA0000430136001232B61C9F80030149B622792
:103EB0001D602EE7711E284600F077FD0028EDD129
:103EC0002946029800F0CEF9149A00231360502777
:103ED0001FE7159B002BF3D1E0E7159B002BDDD1ED
:103EE000EEE700BFD050001A671EBAF1000F31D1C3
:103EF00027B13946284600F058FD82467A11012341
:103F000007F01F0703FA07F759F8223021461F422E
:103F1000284618BF4AF0020A361BFFF720FED8F8E1
:103F200004400227BAF1000F48D0D8F80C30022B19
:103F300015D0032B17D0012B09D11AF0020F06D090
:103F4000D9F800304AEA030A1AF0010F0ED147F0FF
:103F5000100733E04FF0010AD0E70127E2E7159B95
:103F6000C3F101031593159B002BF0D0D5F81090E9
:103F700005F114034FEA890A03EB0A014FF0000C24
:103F8000184653F8042BB2F1FF3F1CD001320260F7
:103F9000022F05F1140338D1D8F80020013AB242BB
:103FA0000AD17111012206F01F0653F8213002FADE
:103FB00006F61E4218BF174647F02007149B1D60E7
:103FC000069B1C60A5E6994243F804CCD8D8AB68A0
:103FD000994512DB69680298013100F00FF92A69EE
:103FE000023205F10C01834692000C30FEF7F0FE20
:103FF0002946029800F036F95D462B695A1C05EBFC
:1040000083032A6101225A61C2E72A694A450BDD0E
:1040100001212846FFF7A3FDD8F808300134A34258
:10402000FFF6DDAE0127C7E716F01F06FAD09A4467
:10403000C6F120065AF8040C00F0A4F9B042E7DB00
:10404000F0E700BFC2F10802920070B5C2F120068D
:104050004368046803FA06F52C43D340046040F833
:10406000043F8842F4D370BD30B50368013311F8C2
:10407000014B14B90360012030BD13F8012BA2F1EC
:104080004105192D98BF2032A242F0D00020F3E75D
:104090002DE9F04F0B6801685F1102EB870713F001
:1040A0001F0387B018BF043700253E1F8246904685
:1040B000019347F8045CB14634460295AB464A7812
:1040C0004B1C039342B3104605910492FFF781FD08
:1040D000002843D1049A0599202A18D8029B9B45B1
:1040E00013DD4C4506D2072D04DC2A4649462046FE
:1040F000FFF7A8FF444544D90023A4F1040944F87C
:10410000043CCDF808B04C461D460399D7E7292A50
:104110004AD10231CAF80010BBF1000F44D04C451F
:1041200006D2072D04DC2A4649462046FFF78AFFBF
:10413000444528D9434654F8042B43F8042BA6429F
:10414000F9D2002243F8042B9E42FBD233681BB9FC
:10415000464527D101233360052026E00135082D8F
:104160000BF1010B06DD4445CFD9002344F8043C94
:104170000125043C226800F00F0040EA0210206094
:10418000C3E70825C1E7019B002BDFD04FF0FF32CA
:10419000C3F1200322FA03F357F8042C1A4047F81E
:1041A000042CD3E7043ED1E7042007B0BDE8F08F2C
:1041B000024B01461868FEF721BE00BFDC0000106C
:1041C00082B001B901A942B14BB113780B601278EA
:1041D000101C18BF012002B070471046FBE76FF0BB
:1041E0000100F8E70148FEF7F1BD00BFCC07001061
:1041F0000148FEF7ECBD00BFCC07001070B5456A62
:1042000004460E463DB91020FFF7D2FFC0E9015524
:1042100060620560C560656AEB6883B1636ADB68EC
:1042200053F82600B8B9012101FA06F56A1D92007B
:10423000204600F0DBFB60B1C0E901650EE0212201
:104240000421204600F0D2FB636AE860DB68002BA3
:10425000E4D1002070BD026843F826200023C0E9A5
:104260000333F7E770B5446A06460D463CB91020A3
:10427000FFF79EFFC0E9014470620460C4603DB175
:10428000736A6A68DB6853F82210296043F8225089
:1042900070BD2DE9F0410D691F4606460C4601F13F
:1042A000140C0023DCF8000081B202FB01710F0C3A
:1042B000000C02FB007089B2013301EB00419D420A
:1042C0004FEA10474CF8041BECDCD7B1A368AB42B3
:1042D00012DC616830460131FFF790FF226902323B
:1042E00004F10C01804692000C30FEF771FD21466E
:1042F0003046FFF7B7FF444604EB850301355F61A5
:1043000025612046BDE8F0812DE9F8430C461546AD
:104310001F4609220833064693FBF2F300210122CF
:104320009A4220DB3046FFF769FF089B4361092D65
:104330004FF00103036119DD04F10909C8462C445B
:1043400018F8013B0146303B0A223046FFF7A1FF37
:10435000A045F5D1A5F108044C442D1B6319BB42BF
:1043600007DBBDE8F88352000131D9E70A3409259B
:10437000F3E714F8013B0146303B0A223046FFF7D1
:1043800088FFEBE7020C12040346CAB903041020AD
:1043900013F07F4F04BF1B02083013F0704F04BFAF
:1043A0001B01043013F0404F04BF9B000230002B70
:1043B00005DB13F0804F00F1010008BF202070479B
:1043C0000020E5E7036813F0070201460BD0DA0787
:1043D00024D4980749BF5B089B0801200B605CBF91
:1043E0000B600220704798B2B0B91B0C102013F07C
:1043F000FF0F04BF1B0A08301A0704BF1B09043053
:104400009A0704BF9B080230DA0703D45B0800F167
:10441000010005D00B6070471046E8E700207047A8
:104420002020704710B50C460121FFF7E7FE01225E
:104430004461026110BD2DE9F74F90460A69D8F832
:1044400010309A42B8BF0B460C46BCBF4446984653
:104450002769D8F81090A368616807EB0906B34292
:10446000B8BF0131FFF7CAFE00F1140505EB860E57
:104470002B460022734516D304F1140308F11402ED
:1044800003EB870702EB89030093009B01929342A1
:104490000CD8002E03DD5EF8043D002B59D00661D8
:1044A00003B0BDE8F08F43F8042BE3E7B2F800A0B7
:1044B000BAF1000F23D004F11409AC464FF0000804
:1044C00059F8041BDCF800B08BB21FFA8BFB0AFB17
:1044D00003B34FEA114BDCF8001043444FEA114894
:1044E0000AFB0B8101EB13419BB243EA01434F45A9
:1044F0004FEA11484CF8043BE2D8CCF80080019B0D
:10450000B3F802900432B9F1000F20D02B6804F107
:104510001408AC464FF0000AB8F80010BCF802B01E
:1045200009FB01B18A449BB243EA0A434CF8043BBD
:1045300058F8043BBCF800101B0C09FB031303EBF9
:104540001A4347454FEA134AE6D8CCF80030043501
:104550009BE7013E9DE7FFFF2DE9F843154612F06A
:10456000030206460F4607D0013A214C002354F8B7
:104570002220FFF78EFE0746AD1035D0746A3CB995
:104580001020FFF715FEC0E9014470620460C460AA
:10459000D6F82480D8F808404CB940F27121304652
:1045A000FFF740FF0023C8F80800044603604FF0FF
:1045B0000008EB070AD5394622463046FFF73BFF95
:1045C000394681463046FFF74DFE4F466D100BD001
:1045D000206838B9224621463046FFF72CFF20607C
:1045E000C0F800800446E4E73846BDE8F88300BF21
:1045F000D851001A2DE9F0470C464FEA621A236998
:1046000049680AEB0309A3680746164609F1010544
:10461000AB4233DB3846FFF7F1FD0023804600F163
:10462000140100F11002184653452ADB20692AEADA
:10463000EA7A04F1140316F01F0201EB8A0103EB7E
:10464000800C22D0C2F1200E00201E68964030431C
:1046500041F8040B53F8040B9C4520FA0EF0F4D8F3
:10466000086008B109F10205013D3846C8F810504C
:104670002146FFF7F7FD4046BDE8F08701315B00BA
:10468000C6E742F8040F0133CEE7043953F8042B90
:1046900041F8042F9C45F9D8E6E703690A699B1A9B
:1046A00030B50CD19200143014318418114454F8F0
:1046B000045D51F8042D954203D005D3012318461B
:1046C00030BDA042F3D3FAE74FF0FF33F7E72DE90F
:1046D000F0470D460746114628461446FFF7DDFF12
:1046E000061E08D131463846FFF788FD0123C0E990
:1046F0000436BDE8F087A4BF23462C4638466168DF
:10470000A6BF1D4600260126FFF778FD2B69C6606F
:10471000266905F1140904F1140202EB860709EB7E
:10472000830800F114054FF0000E52F804AB59F85D
:10473000044B1EFA8AF1A3B2C91A230CC3EB1A4325
:1047400003EB214389B24FEA234EC84541EA0343B4
:10475000944645F8043BE8D8BC4504D355F8043DDD
:1047600083B10661C5E75CF8041B1EFA81F31A14D5
:1047700002EB11429BB243EA02434FEA224E45F854
:10478000043BE9E7013EE9E7114B10EE902A1A409D
:10479000A2F15073002B04DD0020194641EC100BF0
:1047A00070475B421B15132B4FF000004FF00001C8
:1047B00004DC4FF4002242FA03F1EFE7143B1E2B16
:1047C000DABF4FF0004222FA03F301231846E5E76F
:1047D0000000F07FF8B5056900F1140707EB8505C7
:1047E0002E1F55F8044C2046FFF7CCFDC0F12003E6
:1047F0000A280B60DFF878C014DCC0F10B0E24FA35
:104800000EF1B74241EA0C0334BF55F8081C0021F1
:10481000153004FA00F021FA0EF140EA010243ECEF
:10482000102BF8BDB7423ABFA5F1080655F8081C91
:1048300000210B3817D0C0F1200C04FA00F5BE425D
:1048400021FA0CF445EA04058CBF56F8044C002408
:1048500045F07F5301FA00F024FA0CF443F44013BE
:1048600040EA0402DBE744EA0C030A46D7E700BF4C
:104870000000F03F2DE9F7430E46012159EC108B63
:104880001546FFF7BBFCC9F30A540746C9F31303E7
:104890002CBB0193B8F1000326D068460093FFF7C4
:1048A00091FD0099F0B1019AC0F1200302FA03F3DF
:1048B0000B43C2407B610192019BBB61002B14BF83
:1048C000022101213961C4B1A4F2334404443460AB
:1048D000C0F135002860384603B0BDE8F08343F4EA
:1048E0008013D6E77961E7E701A8FFF76BFD019B2D
:1048F0007B61012139612030E5E707EB8103A0F2FC
:10490000324030601869FFF73DFDC0EB4110E1E730
:104910002DE9F74F884669468146FFF75BFF01A9FD
:10492000404657EC106BFFF755FFD9F81030D8F818
:104930001020A3EB020CDDE900329B1A03EB4C13B1
:104940005BEC10AB002BCEBF3A46C3EB03335A46A9
:1049500059463D46D4BF02EB035102EB03553046A6
:1049600010EE102A0B462946FDF764FE41EC100BB1
:1049700003B0BDE8F08F013910B549111469013158
:1049800002F1140300EB810103EB8404A34202460D
:1049900003D300238A4205D310BD53F8042B40F8FB
:1049A000042BF3E742F8043BF4E700F1140200693A
:1049B0004B11984210B511DB0ADD11F01F0107D031
:1049C00052F8234024FA01F000FA01F18C420BD195
:1049D00002EB8303934203D8002010BD0346F7E7A0
:1049E00053F8041D0029F5D00120F6E738B502FB85
:1049F00001F42146FEF702FA054618B122460021CD
:104A0000FEF7F4F9284638BD9FED010B704700BF53
:104A1000000000000000F87F10B56AB10139841869
:104A200010F8013B11F8012F934203D1A04201D0AD
:104A3000002BF5D1981A10BD1046FCE749B1FF2AAA
:104A400085BF8A2303600A704FF0FF3098BF0120B2
:104A5000704708467047FFFF38B500220023044620
:104A60000D46FDF72FFF28B920462946BDE83840FE
:104A7000FDF7E0BF204605F10041FDF7DBFF4042B6
:104A800061EB410138BD00BF3E3E3E3E20417465B2
:104A90006E6469656E646F20696E7465727275709C
:104AA00063696F6E2E200D0A00FFFFFF3E3E3E3E03
:104AB000204D6F6E20496E69742E200D0A00000093
:104AC0003E3E3E3E2046696E200D0A003E3E3E3E82
:104AD000204C6C65676F20756E6120696E7465721D
:104AE00072757063696F6E200D0A0000526563690C
:104AF000626920656C207369677569656E746520ED
:104B00006D656E73616A653A000000000D0A205001
:104B1000726F6365736520656C207369677569657D
:104B20006E7465206D656E73616A653A200D0A00CA
:104B30002C0000004C6C65676F20756E20323030A1
:104B40002E0000004C6C65676F20756E203430308D
:104B50002E000000456E7669616E646F20436F72AF
:104B600064656E6164617320616C204175746F3A95
:104B70002000FFFF554152545F55534220636F6E32
:104B8000666967757261646120636F7272656374D0
:104B9000616D656E74652E0D0A0000003E3E3E3E5E
:104BA00020554152545F4553502028646F6E646510
:104BB00020736520636F6E6563746120656C2045AA
:104BC00053503332292C200D0A3E3E3E3E20636F67
:104BD0006E666967757261646120636F6D6F2073C3
:104BE000616C69646120646520636F6E736F6C61D2
:104BF0002E0D0A00010F01010200440002014400D1
:104C000002024400020A4000020B4000020C400075
:104C10000100500001015000010250000106500047
:104C20000601500006045000060550000607540017
:104C30000608540006095000060A5000060B5000F2
:104C4000060C50000F04F0000103D5000104D5004C
:104C50000701160007025600020352000204520028
:104C6000090552000906570006025700000000001F
:104C70000004000800090109050005010502000EF5
:104C8000010B010C030003030304050F05100305CA
:104C9000030603070208FFFF001BB7000001010025
:104CA000090901000A0901000107010102090100C7
:104CB000060901000C0901010D0901000E0901009E
:104CC0000F0901001009010011090100120901007A
:104CD0001309010014110100191101001A1101003A
:104CE0001B11010001020408030F0F0FFF00FFFF5B
:104CF000000005000A0020002400090040004000D8
:104D000005006000A6000400C000C3000200E0002F
:104D1000E000010000010001030020012001060065
:104D2000400140010C004201420119006201620190
:104D30001300820182011200A201A2011100C2012E
:104D4000C2011000E201E2010F00020202020E00A5
:104D5000220222020D00230223021C00C201A20132
:104D60008201620181008200A100A2000401000210
:104D700001070500030D01050001080402000202FD
:104D800004030002030400000200070400030C03F4
:104D900002040509030104050802030405030204D3
:104DA000040504060C000208060B000307060900B0
:104DB0000305060704050F060400030304040002AC
:104DC0000404050002050406000206040804050C9C
:104DD000040A04050E010300000A011400000F017B
:104DE0001200000D011100000C0110000003070764
:104DF00000030F00010000010000000000060A008F
:104E00000306060804051006050003040601000356
:104E100000040904050D010400000B010F0000024D
:104E20000100000004010100000801020000090166
:104E30000600010902000405000201040501020246
:104E4000040502020A00000E020B00010B020C0016
:104E5000010CFFFF010C0A00030D0702050406FF09
:104E60000010084006040206050218000010084061
:104E70000905070906071800002008400000000087
:104E80000000190000100C400701060702061A0076
:104E900000100C40010F010110011A0000200C400D
:104EA0000203020204021B0004020401020A0403BA
:104EB000020C020B0605060C0103010401050000AB
:104EC000070507047A797877767574737271706F55
:104ED0006E6D6C6B6A6968676665646362613938B8
:104EE0003736353433323130313233343536373882
:104EF000396162636465666768696A6B6C6D6E6F61
:104F0000707172737475767778797A000001020097
:104F10002020202020202020202828282828202069
:104F20002020202020202020202020202020202081
:104F300088101010101010101010101010101010F9
:104F400004040404040404040404101010101010D9
:104F500010414141414141010101010101010101B2
:104F600001010101010101010101011010101010E6
:104F70001042424242424202020202020202020283
:104F800002020202020202020202021010101020AB
:104F90000000000000000000000000000000000011
:104FA0000000000000000000000000000000000001
:104FB00000000000000000000000000000000000F1
:104FC00000000000000000000000000000000000E1
:104FD00000000000000000000000000000000000D1
:104FE00000000000000000000000000000000000C1
:104FF00000000000000000000000000000000000B1
:1050000000000000000000000000000000000000A0
:105010000000000000000000000000000000000090
:105020000000000000000000000000000000000080
:105030000000000000000000000000000000000070
:105040000000000000000000000000000000000060
:105050000000000000000000000000000000000050
:105060000000000000000000000000000000000040
:105070006E6600696E69747900616E00350000002B
:10508000CEFBFFFFCB03000001000000000000008A
:1050900034000000CEFBFFFFCB0300000100000046
:1050A00000000000FFFFFFFFBC89D897B2D29C3CF4
:1050B00033A7A8D523F649393DA7F444FD0FA532FF
:1050C0009D978CCF08BA5B25436FAC6428066811A6
:1050D000DC50001ADD50001A400100102E00430081
:1050E000504F53495800FFFF0080E03779C34143D8
:1050F000176E05B5B5B89346F5F93FE9034F384D3E
:10510000321D30F94877825A3CBF737FDD4F1575E9
:10511000000000000000F03F0000000000002440FC
:1051200000000000000059400000000000408F40D7
:10513000000000000088C34000000000006AF84042
:105140000000000080842E4100000000D012634166
:105150000000000084D797410000000065CDCD41DC
:10516000000000205FA00242000000E876483742BD
:10517000000000A2941A6D42000040E59C30A2425B
:105180000000901EC4BCD64200003426F56B0C43D0
:105190000080E03779C3414300A0D8855734764377
:1051A00000C84E676DC1AB43003D9160E458E143D8
:1051B000408CB5781DAF154450EFE2D6E41A4B444D
:1051C00092D54D06CFF08044F64AE1C7022DB54492
:1051D000B49DD9794378EA44050000001900000025
:0451E0007D0000004E
:0451E4001D0A001A86
:0851E80088D8FF7F01000000E0
:1051F0000004000000100A4022000000690B001AA1
:10520000000000000000000000000000000000009E
:1052100000000E4001000000690B001A00000000B1
:1052200000000000000000000000000000CB280C7F
:10523000F517001AF317001AF317001AF317001ADC
:10524000F517001AF317001AF317001AF317001ACC
:10525000F517001AF317001AF317001AF317001ABC
:10526000F517001AF317001AF317001AF317001AAC
:105270000100000000000000FFFFFFFFFFFFFFFF35
:10528000FFFFFFFF00000000000000000000000022
:10529000000000001F0100030400000001000000E6
:1052A0000000000000000000000000001E010105D9
:1052B00010000000020000000000000000000000DC
:1052C000000000001D01020306000000E0000010C5
:1052D000000000003050001A5050001A1050001A00
:1052E00000000000000000000000000000000000BE
:1052F00000000000000000000000000000000000AE
:10530000000000000000000000000000000000009D
:10531000000000000000000000000000000000008D
:10532000000000000000000000000000000000007D
:10533000FF00FFFF4300000000000000000000002D
:10534000000000000000000000000000000000005D
:10535000000000004300000000000000000000000A
:10536000000000000000000000000000000000003D
:1053700000000000430000000000000000000000EA
:10538000000000000000000000000000000000001D
:1053900000000000430000000000000000000000CA
:1053A00000000000000000000000000000000000FD
:1053B00000000000430000000000000000000000AA
:1053C00000000000000000000000000000000000DD
:1053D000000000004300000000000000000000008A
:1053E00000000000000000000000000000000000BD
:1053F000000000004300000000000000000000006A
:10540000000000000000000000000000000000009C
:10541000000000003D4A001AC141001A00000000CF
:105420000F4F001ADC50001ADD50001ADD50001A30
:10543000DD50001ADD50001ADD50001ADD50001A50
:10544000DD50001ADD50001ADD50001AFFFFFFFF8B
:10545000FFFFFFFFFFFFFFFFFFFF000001004153C1
:105460004349490000000000000000000000000067
:105470000000000000000000000000000000415398
:105480004349490000000000000000000000000047
:10549000000000000000000000000000000000000C
:040000051A00071DB9
:00000001FF
